:1019000012010002000000400516408000000102A4
:1019100000010A06000200000040010009022E003A
:1019200001010080F00904000004FF000000070529
:1019300002020002000705040200020007058602F9
:101940000002000705880200020009022E000101C2
:101950000080F00904000004FF00000007050202F7
:101960004000000705040240000007058602400011
:101970000007058802400000040309040C0341002D
:101980004300430045005300260355005300420026
:101990002D004100490020002000200020002000F0
:1019A00020002000000000000000000000000000F7
:1012D10060803E70013F010101010107000302022C
:1012E10002020200F5F7F7F7F7F7F7F70000000041
:1012F1000000003F013F010101010107020500005B
:1013010000000000F6F7F7F7F7F7F7F70000000025
:101311000000003F01130121013901070001000113
:10132100000B0200F7F7F3F7F5F7F7F7003600F0D7
:101331000012003F010138010101010702020D0005
:1013410000000000F2F7F7F7F7F7F7F700002D00BC
:101351000000003F60243EF7000000000000000094
:10136100000000000000000000000000000000007C
:10137100000000000000000000000000473EF0E017
:101381008000F7AA4E0060803F1B013F010101016F
:1013910001070003020202020200F5F7F7F7F7F76F
:1013A100F7F7000000000000003F013F01010101CB
:1013B10001070205000000000000F6F7F7F7F7F754
:1013C100F7F7000000000000003F0113012101397F
:1013D100010700010001000B0200F7F7F3F7F5F731
:1013E100F7F7003600F0002D003F0101380101013F
:1013F100010702020D0000000000F2F7F7F7F7F70E
:10140100F7F700002D000000003F60243FA200001C
:1014110000000000000000000000000000000000CB
:1014210000000000000000000000000000000000BB
:0C1431000000473F9BE08000F7AA4E003F
:10209A0090E67174FFF0F5B490E672E04480F04384
:1020AA00B6802290E60174AAF090E6F574FFF02259
:1020BA00F59B759DE4E4F59EFF2290E67BE090E6B1
:0420CA007CF00F2275
:101A5D001220AD903F9BE090E6F3F0903F9CE0901C
:101A6D00E6C3F0903F9DE090E6C1F0903F9EE09080
:101A7D00E6C2F0903FA0E090E6C0F0903FA1E0906C
:101A8D00E6F4F075AF07743FF59A741B1220BA1285
:101A9D0020C4BF80FA12209A000000E490E6C4F042
:101AAD0000000090E6C5F0903FA2E090E6C6F090F1
:101ABD003FA3E090E6C7F0903FA4E090E6C8F09019
:101ACD003FA5E090E6C9F0903FA6E090E6CAF09001
:101ADD003FA7E090E6CBF0903FA8E090E6CCF090E9
:081AED003FA9E090E6CDF022D4
:101AF5001220AD903EF0E090E6F3F0903EF1E090DC
:101B0500E6C3F0903EF2E090E6C1F0903EF3E0903F
:101B1500E6C2F0903EF5E090E6C0F0903EF6E0902B
:101B2500E6F4F075AF07743EF59A74701220BA1298
:101B350020C4BF80FA12209A000000E490E6C4F0A9
:101B450000000090E6C5F0903EF7E090E6C6F09004
:101B55003EF8E090E6C7F0903EF9E090E6C8F090D8
:101B65003EFAE090E6C9F0903EFBE090E6CAF090C0
:101B75003EFCE090E6CBF0903EFDE090E6CCF090A8
:081B85003EFEE090E6CDF022E7
:0A261E000001020203030404050595
:10216800EC4EFEED4F241EF58274263EF583E49373
:10217800FF3395E0FEEF24A1FFEE34E68F82F5836E
:102188002290E6BCE0547EFF7E00E0D394807C0081
:012198002224
:101C2000E4F530F52FF52EF52DC20CC209C20BC21A
:101C30000A120CA0750A19750B007512197513128A
:101C400075081975091C75101975114A75141975DF
:101C50001578D2E843D82090E668E04409F090E691
:101C60005CE0443DF0D2AFD20F12219990E680E0C3
:101C700054F7F0538EF8C20C300A05121127C20A2D
:101C8000300C291226505024C20C12229220091620
:101C900090E682E030E704E020E1EF90E682E03079
:101CA000E604E020E0E41221C812265912165D80F5
:011CB000C76C
:1011270090E6B9E070030211D814700302122C2460
:10113700FE700302128624FB70030211D21470039F
:101147000211CC146073146076240560030212BD8B
:101157001218FE40030212C990E6BBE024FE60228B
:1011670014603324FD601114602224067048E50AD8
:1011770090E6B3F0E50B8037E51290E6B3F0E513A0
:10118700802DE50C90E6B3F0E50D8023E50E90E6A3
:10119700B3F0E50F801990E6BAE0FF1221F4AA0632
:1011A700A9077B01EA494B600DEE90E6B3F0EF909B
:1011B700E6B4F00212C90212C212263C0212C91288
:1011C70026320212C9121F760212C91226280212EB
:1011D700C91226B940030212C990E6B8E0247F601D
:1011E700151460192402703AA209E43325E0FFA21E
:1011F7000BE4334F8018E490E740F0801612218902
:1012070040047D0180027D00122168E0540190E7CF
:1012170040F0E4A3F090E68AF090E68B7402F002C7
:1012270012C90212C21226BB40030212C990E6B8C5
:10123700E024FE6016240260030212C990E6BAE0B9
:10124700B40105C2090212C90212C290E6BAE070DF
:101257002C12218940047D0180027D00122168E063
:1012670054FEF090E6BCE05480131313541FFFE0C4
:10127700540F2F90E683F0E04420F08045803C1225
:1012870026BD503E90E6B8E024FE601A2402703274
:1012970090E6BAE0B40104D209802790E6BAE0B438
:1012A7000202801E801512218940047D0180027D83
:1012B700001221688008120080500790E6A0E044E1
:0A12C70001F090E6A0E04480F02260
:030033000226A6FC
:0426A60053D8EF32E4
:10172700362D31364100362D31364500322D3136D2
:101737004100322D313600322D31364500362D36F7
:10174700344D4100362D36344D4500322D36344D5B
:101757004100322D36344D00322D36344D4500369A
:101767002D33324100362D33324500322D3332418D
:1017770000322D333200322D33324500362D3634C8
:101787004100362D36344500322D36344100322D96
:10179700363400322D36344500362D393641003681
:1017A7002D39364500322D39364100322D39360074
:1017B700322D39364500362D3132384100362D313C
:1017C70032384500322D3132384100322D3132382E
:0F17D70000322D31323845002D4F544845520015
:10143D00413FCA00413FD0FF413FCBFE413FE90054
:10144D00413FD300025A0000C104C106C102C108C8
:10145D00C103C101413FCCFB413FCD5002580000BB
:02146D00C100BC
:100F21007A17794B7BFFE4F545754601227A1779EB
:100F3100447BFF75450175460122E490E68AF090F5
:100F4100E6BEE090E68BF02290E6BAE075F008A4E8
:100F5100FFA3E07C002FFFEC35F0FEE42FF5827457
:100F6100503EF583E02290E6BBE0C41313540375B1
:100F71003D005403F53EE0C313753D005407F53EB3
:100F8100E490E68BF090E6BBE0905003227586007A
:100F91005391EF22AD3A7AE779407F40AB07229037
:100FA100E678E04401F0E05410FFC4540F4450903F
:100FB1003FC9F0E013E433903FD2F022E090E740E4
:100FC100F0E490E68AF090E68B227A17792D7BFF88
:100FD100E4F545F54622FF90E6BAE075F008A42451
:100FE10003F582E5F03450F583EFF022F090E6BC92
:100FF100E0FF90E6BBE02274D42FF582E4343FF5A4
:1010010083E4F02FF582E43440F583227440253CDB
:10101100F582E434E7F583222536F536E5393535B1
:10102100F535C3E538953AF538E5379539F5372281
:101031007A1779277BFF754501E4F54622E54B7563
:10104100F002A42488F9741935F022903FD0EFF012
:10105100E0FF444090190AF0EF541F2290E740E06E
:10106100904015F090E741E0904016F02290401733
:10107100E090E740F0904018E090E741F0227A17C5
:10108100793E7BFFE4F545F54622C3E53C953AE51B
:101091003B95392290E6047480F0223EF583E0FB13
:1010A100ED25E0FFEC33FE22E536253CF582E53502
:1010B100353BF583225391EF90E65D2290E6C374B0
:1010C10080F090E6C214F02290E684E0FE90E6857E
:1010D100E0FDEE22F582E4343FF5832290401DE4E9
:1010E100F01222DBC2102274412FF58274E73EF523
:1010F1008322850D82850C83A37402F022850F82E1
:10110100850E83A37407F022F07A3F7BEAAD407F1E
:101111000E22FEE07C002400FFEC3E22E490E68AF1
:06112100F090E6BEE022A2
:10224700754003903FEA7430F0E4A3F0A3740312DF
:102257001109122559903FEA7438F0E4A3F0A3045A
:06226700121109022559C5
:0C261200C007EDAD03FCEBD007021E0D6D
:0126BF0022F8
:0126C00022F7
:0426AA004380022245
:0426AE005380FD2236
:0426B200638002221D
:1025B2001210950000007406F0000000E4F0000024
:0225C2000022F5
:1017E600C20890E61474E0F000000090E61A74094E
:0717F600F00000000225B223
:1025C4001210950000007402F0000000E4F0000016
:0225D4000022E3
:101EF40090E61274A0F000000090E6187411F0004F
:101F040000001225C490E6917480F0000000F000F7
:101F14000000F0000000F000000090E6497482F038
:101F2400000000F0000000F0000000F000000002DB
:021F340025C4C2
:06269600121EF40217E61B
:10234700D205904011E4F090401C04F0E4F075B31E
:10235700FF90E671F075B4FF75B5FF90E672F07502
:03236700B6FF229C
:08268600D205E4F5B3F5B5221D
:10236A00C205903FE5E0904011F0E4F5B390E671C4
:10237A0074FFF0F5B4E4F5B590E6727480F075B6C2
:02238A00FF2230
:1022B700E4FEFD7801AF05EF08800103D8FDF5B115
:1022C7008DB08EA08E9090401BEEF00EEE70E40D58
:0422D700ED70E022A4
:101F3600E4FEFD7801AF05EF08800103D8FDF5B199
:101F46008EA090401C7401F0AF90ACB0E4F0EFB5F9
:101F56000604EC6D6008903FCB7401F080040EEE31
:101F660070D10DED70CD903FCBE0B4FE02E4F022CF
:1022DB001223479040107401F01222B790401074F3
:1022EB0005F01222B7122686121F3612236A90406F
:0422FB0010E4F022D9
:101B8D008B478A488949E4F54A754B071225758FAD
:101B9D004C120F977D017F047E00121E6190E7406D
:101BAD00E0448090190BF090E740E0B4010C121066
:101BBD003E8982F583744FF0054B12103E8982F5F4
:101BCD00837431F0054BE54C254B25E0901988F0D9
:101BDD00E4F54AAF4CEF3395E0FEC3E54A9FEE6462
:101BED0080F8748098502BAB47AA48A949854A8242
:101BFD00758300121593FDE54A121040FAE54B75F9
:101C0D00F002A429F9EA35F08982F583EDF0054A51
:031C1D0080C12261
:1022200090401374AAF0E064AA70197455F0E06449
:10223000557011744FF0E0B44F0A7449F0E0B4499E
:07224000037F00227F012251
:101D3D00122220EF14601B04705A120F977D017F41
:101D4D00037E00121E6190E740E0541F903FD0F0DB
:101D5D008042120F977D027FF67E1D121E6190E765
:101D6D0040E0FF780208800123D8FDF54190E7415E
:101D7D00E0903FD0F0120F977D017F037E00121E81
:101D8D006190E740E0654160037F042290E740E009
:0A1D9D00541FFF22903FD0E0FF2208
:10258A0090401AEDF0903FE9E545F0903FD3E546DB
:04259A00F0021B8DA3
:100CA000E4F54090E6017480F012268E120FA090B9
:100CB000E6007410F090E61074A0F090E611F000D9
:100CC000000090E612F0000000E490E613F000004F
:100CD0000090E61474E0F0000000E490E615F012D5
:100CE00010950000007482F00000007486F000008F
:100CF00000E4F000000090E618F00000007411F02D
:100D000000000090E61A7409F0000000121D3D1268
:100D1000104CB41E004003020EF2900D21F828285A
:100D200073020D7B020D82020D8A020D96020DA246
:100D3000020DAA020DB2020DBA020DC6020DD202B8
:100D40000DE0020DEE020DFC020E0A020E18020E5C
:100D500026020E34020E42020E50020E5E020E6C8D
:100D6000020E7A020E87020E94020EA1020EAE024D
:100D70000EBB020EC8020ED5020EE2121031FD02A9
:100D80000EED120FCB7D01020EED7A1779331210A2
:100D9000357D02020EED7A177939120FCF7D0302ED
:100DA0000EED12107F7D04020EED120F2E7D080253
:100DB0000EED120F217D09020EED7A177952120FF6
:100DC000327D0A020EED7A177959120F257D0B023A
:100DD0000EED7BFF7A17795F120F277D0C020EED67
:100DE0007BFF7A177966120F347D10020EED7BFFC0
:100DF0007A17796C120F277D11020EED7BFF7A179F
:100E00007972120F347D12020EED7BFF7A1779781A
:100E1000120F277D13020EED7BFF7A17797D120FDB
:100E2000277D14020EED7BFF7A177983120F347D34
:100E300010020EED7BFF7A177989120F277D1102C0
:100E40000EED7BFF7A17798F120F347D12020EEDB3
:100E50007BFF7A177995120F277D13020EED7BFF2A
:100E60007A17799A120F277D14020EED7BFF7A17FD
:100E700079A0120F347D10020EED7BFF7A1779A650
:100E8000120F277D1180667BFF7A1779AC120F3421
:100E90007D1280597BFF7A1779B2120F277D13805C
:100EA0004C7BFF7A1779B7120F277D14803F7BFFA9
:100EB0007A1779BD120F347D1080327BFF7A177953
:100EC000C4120F277D1180257BFF7A1779CB120F73
:100ED000347D1280187BFF7A1779D2120F277D1389
:100EE000800B7BFF7A1779D8120F277D1412258A81
:100EF00080097BFF7A1779DF121B8DE4FF120FF850
:100F0000E4F00FBF15F71210DD1225201210BD00FE
:100F1000000090E6E27402F043B202D209755C016F
:010F200022AE
:1009ED00E4F5531210C9F554EDF555D204C206C203
:1009FD0007C205C208C203C20190401FE4F01210E5
:100A0D00BD90E600E054E74410F090E6017480F0EC
:100A1D0090E67AE04401F012268E120FA090E610B7
:100A2D0074A0F000000090E611F0000000E490E6E4
:100A3D0013F000000090E615F0000000122696124B
:100A4D001D3D12104CB41E004003020C38900A617B
:100A5D00F8282873020ABB020AC2020ACA020AD87F
:100A6D00020AE4020AEC020AF4020AFC020B0A0270
:100A7D000B18020B26020B34020B42020B50020B19
:100A8D005E020B6C020B7A020B88020B96020BA412
:100A9D00020BB2020BC0020BCD020BDA020BE70206
:100AAD000BF4020C01020C0E020C1B020C2812108E
:100ABD0031FD020C33120FCB7D01020C337BFF7A1B
:100ACD001779331210377D02020C337A17793912E8
:100ADD0010837D03020C3312107F7D04020C331240
:100AED000F2E7D08020C33120F217D09020C337B72
:100AFD00FF7A177952120F347D0A020C337BFF7A7D
:100B0D00177959120F277D0B020C337BFF7A17795A
:100B1D005F120F277D0C020C337BFF7A177966125B
:100B2D000F347D10020C337BFF7A17796C120F276F
:100B3D007D11020C337BFF7A177972120F347D12FF
:100B4D00020C337BFF7A177978120F277D13020C75
:100B5D00337BFF7A17797D120F277D14020C337BBF
:100B6D00FF7A177983120F347D10020C337BFF7AD5
:100B7D00177989120F277D11020C337BFF7A1779B4
:100B8D008F120F347D12020C337BFF7A1779951279
:100B9D000F277D13020C337BFF7A17799A120F27DB
:100BAD007D14020C337BFF7A1779A0120F347D1060
:100BBD00020C337BFF7A1779A6120F277D11806601
:100BCD007BFF7A1779AC120F347D1280597BFF7A37
:100BDD001779B2120F277D13804C7BFF7A1779B7E7
:100BED00120F277D14803F7BFF7A1779BD120F34CA
:100BFD007D1080327BFF7A1779C4120F277D11800B
:100C0D00257BFF7A1779CB120F347D1280187BFF6D
:100C1D007A1779D2120F277D13800B7BFF7A177904
:100C2D00D8120F277D1412258A80097BFF7A177938
:100C3D00DF121B8DE4FF120FF8E4F00FBF15F71252
:100C4D0010DD12252090E6E27402F000000043B2A0
:100C5D0002D20990E65EE04450F000000090E65AA2
:100C6D00E04450F000000090E658E04450F00000E1
:100C7D000090E650E04403F000000090E654E0449C
:100C8D0003F00000001210C9F556EDF557755C0123
:030C9D00D204225C
:10165D00E58070047F0180027F00EF90E68030E02E
:10166D0006E04408F08004E054F7F0E55C700330C8
:10167D000035E559455870067558087559FFE559F7
:10168D00155970021558E55945587004F55C800FD1
:10169D00AE58AF597C027D3F1215E2EF20E00512E6
:1016AD0026AE80031226AA30084090401FE030E09D
:1016BD0039C208E4F090E6F574FFF0C206121095F9
:1016CD00E490E6CEF000000090E6CFF00000009030
:1016DD00E6D0F000000090E6D1F000000090E604A6
:1016ED00F00000001225B21226B230082CE5BB30F6
:1016FD00E72700000090E6AFE090E6B0121113FE70
:10170D00D3EF9400EE9400400EEE9402500990E653
:0A171D00487406F0000000C2082224
:1019B000E4FF9040117404F0A374F0F0A37401F0FC
:1019C000E490E6CEF000000090E6CFF0000000903A
:1019D000E6D0F000000090E6D17420F00000007521
:1019E000BB06000000904019E4F01FEF600AE5BB61
:1019F00020E70500000080F2E4FDFCEDAE04780273
:101A0000C333CE33CED8F92402F58274F812109C79
:101A100074402FF58274E73EF583EBF0EDAE047869
:101A200002C333CE33CED8F92403F58274F81210F2
:101A30009C1210E8EBF00DBD00010CED64104C7031
:101A4000BA1225B2903FE5E0904011F0903FE6E0F9
:0D1A5000904012F0903FE7E0904013F0222C
:101DA700E4FF9040117404F0904013E4F090401E5B
:101DB7007481F0E490E6CEF000000090E6CFF000EA
:101DC700000090E6D0F000000090E6BEE0C313905C
:101DD700E6D1F075BB06000000904019E4F01FEF54
:101DE700600AE5BB20E70500000080F2E4FF90E60B
:101DF700BEE0FEEFC39E500B74402F121011E4F0AB
:061E07000F80EB0225B282
:10008000E4F53DF53E755C0120030B90E6B9E064B4
:10009000D460031226BF30030A90E6B9E0B4BE0371
:1000A0001226BF90E6B9E012163703DF1003EF11F6
:1000B00004061202D520032B210332220338230524
:1000C000FA3505F43801163906559107E6A207E618
:1000D000A307D9A907B8AC0956B3093AB40102B6C7
:1000E000090FB7066CBA068BBB0187BC0420BE069D
:1000F00000BF0104C30420D20135D4093AFB00003B
:1001000009E2800C120FEEFD90E6BAE0FB12261217
:100110001219B002065D90E6B8E020E75890E6BC00
:10012000E0600A1460030209E4D20F8002C20F12D9
:1001300026460209E490E6B8E020E73990E6BFE001
:10014000FF90E6BEE04F600A120F3B90E6A0E02071
:10015000E1F990E6BCE0B48102D20890E6BCE0B4DC
:100160008002C20890E6BCE0641360030209E41256
:100170000CA00209E490E6BCE0FFE42F121005E0B9
:1001800090E740F002091690E6B8E030E70302027B
:100190004CD20190E6BEE0D39400400F120F3B908A
:1001A000E6A0E020E1F9C20F1226C090E6BEE0C34F
:1001B0009404402090E740E030E20A90E743E013E7
:1001C000920F12264690E740E030E10890E742E0C7
:1001D00090401FF090E6BEE0600790E740E030E01E
:1001E00066E5AC5401FFE5BB54804F90E740F0E07A
:1001F00030E754E020E050120FEE4FFF90E6BDE0F4
:100200004FFF90E6BAE04F7003D38001C39206908F
:10021000E6BBE090E6CEF000000090E6BAE090E6A3
:10022000CFF000000090E6BDE090E6D0F0000000C6
:10023000A206E433FF90E6BCE04F90E6D1F0000068
:100240000075BB06000000D2080209E490E6B0E0A9
:1002500090E740F090E6AFE090E741F090E699E05B
:1002600090E742F000000090E698E090E743F0004D
:10027000000090E614E090E744F090E61AE090E782
:1002800045F000000090E635E090E746F000000001
:1002900090E634E090E747F0000000A3E5ACF09072
:1002A000E6A9E090E749F090E654E090E74AF000D4
:1002B000000090E655E090E74BF0000000300704A6
:1002C0007F0180027F0090E760EFF0E490E68A1201
:1002D00009E60207AB90E6BEE0B4020E90E6BBE092
:1002E000C4333354C0120FD7802690E6BEE06403B7
:1002F000701E90E6BBE0FF7401A807088002C333BC
:10030000D8FC25E044C0120FD7120F4990E742F005
:10031000120F4990E740F090E6BAE075F008A4FFAC
:10032000A3E0120F5690E7410205EE120F67F002AC
:1003300009E4E490E68B802090E6B8E030E7030221
:1003400009E490E6BFE070047F0180027F0090E640
:10035000BEE04F602F120F67120FEDC4131354034A
:100360007C005403FDE42DF582EC120FE690E6BD0F
:10037000120FF1C413135403FDE42DF582EC120F98
:10038000E60209E490E6BEE06408701C120F3C909F
:10039000E6A0E020E1F9744044E760030209E4903C
:1003A00050037474F00209E490E6BEE06404600354
:1003B0000209E49050037474F074B4F090E742E0E2
:1003C000905002F090E743E0905002F090E740E058
:1003D000905001F090E741E0905001F00209E412E2
:1003E0000F3B90E6A0E020E1F912105D02053F907E
:1003F0004015E090E740F0904016E090E741F0E4CF
:1004000090E68A0205EE120F3B90E6A0E020E1F9AB
:1004100090E742E05403904014F012105D0209E4AA
:1004200090E6B8E030E703020547C203120F3B90A5
:10043000E6A0E020E1F990E740E0903FD4F0904062
:1004400000F090E741E0903FD5F0904001F090E758
:1004500042E0903FD6F0904002F090E743E0903FBA
:10046000D7F0904003F090E744E0903FD8F0904000
:1004700004F090E745E0903FD9F0904005F090E718
:1004800046E0903FDAF0904006F090E747E0903F7A
:10049000DBF0904007F090E748E0903FDCF09040C0
:1004A00008F090E749E0903FDDF0904009F090E7D8
:1004B0004AE0903FDEF090400AF090E74BE0903F3A
:1004C000DFF090400BF090E74CE0903FE0F0904080
:1004D0000CF090E74DE0903FE1F090400DF090E798
:1004E0004EE0903FE2F090400EF090E74FE0903FFA
:1004F000E3F090400FF090E750E0903FE4F0904040
:1005000010F090E751E0903FE5F0904011F090E757
:1005100052E0903FE6F0904012F090E753E0FF90F9
:100520003FE7F0904013F0903FD0E0541FD3940485
:10053000400D90E754E0FF903FE8F090401DF0D26E
:100540000F1226C00209E4903FD4E090E740F090FB
:100550003FD5E090E741F0903FD6E090E742F09041
:100560003FD7E090E743F0903FD8E090E744F09029
:100570003FD9E090E745F0903FDAE090E746F09011
:100580003FDBE090E747F0903FDCE090E748F090F9
:100590003FDDE090E749F0903FDEE090E74AF090E1
:1005A0003FDFE090E74BF0903FE0E090E74CF090C9
:1005B0003FE1E090E74DF0903FE2E090E74EF090B1
:1005C0003FE3E090E74FF0903FE4E090E750F09099
:1005D0003FE5E090E751F0903FE6E090E752F09081
:1005E0003FE7E090E753F0903FE8E090E7541209CE
:1005F000E602066590E6F574FFF01225B20209E402
:1006000090E6BEE07007904019F00209DC90E6BE6B
:10061000E06404702A904019F012106E904019E4C2
:10062000F0904017E090E742F0904018E090E743E8
:10063000F0D20F1226C090E68B7404F00209E41287
:10064000106ED20F1226C090E68B7402F090401903
:10065000E4F00209E4903FCBE090E740F090E6BF81
:10066000E090E68AF090E6BEE00209DC903FE9E027
:10067000B4010890E74074BBF08008903FD0E09050
:10068000E740F0120FC204F00209E490E6B8E0304F
:10069000E71990E6BEE0B4011290E7407401F01251
:1006A00022DB90E68B7401F00209E4200309D203F7
:1006B000C20F122646C201903FE9E06401600302C6
:1006C000079B12236A90E74074BBF090E6BBE0C33F
:1006D00013FFE5B154802FF5B1E090E6C4F090E649
:1006E000BAE090E6C5F090E6BDE090E6BC121113CA
:1006F000903FCEF0A3EFF0903FCEE0FEA3E0FF4EA0
:100700007003020796E5BB30E7EDE5AB20E1E8308A
:10071000044CD3EF9400EE9402401C90E6D0740297
:10072000F0000000E490E6D1F0000000903FC674B5
:1007300002F0A3E4F08027903FCEE0FCA3E0FDECC4
:1007400090E6D0F0000000ED90E6D1F000000090BF
:100750003FCEE0FFA3E0903FC6CFF0A3EFF0E4F57B
:10076000BB000000E5BB20E7030080F800000000AC
:1007700000903FC6E0FEA3E0FFC3903FCFE09FF0B4
:10078000903FCEE09EF0E5B1547F04FFE5B1548088
:100790002FF5B10206F71226868008903FD0E09030
:1007A000E740F090E6BFE090E68AF0120F4090E656
:1007B000A0E04480F00209E490E6B5E054FEF09039
:1007C000E6BFE0120F3C90E6BBE090E6B3F090E6A7
:1007D000BAE090E6B4F00209E4903FD27401F090E0
:1007E0003FC9E04401F090E6BAE0753500F536A364
:1007F000E0FEEE423590E6BEE0753700F538A3E046
:10080000FEEE423790E6B8E064C060030208B0E54F
:1008100038453770030209E490E6A0E020E1F9C30F
:10082000E5389440E5379400500885373985383AE3
:100830008006753900753A4090E6B9E064A37040CF
:1008400090E6BCE0B4011BA3E0701790E6BBE0307B
:10085000E71090E7407403F0A37401F0A37407F06D
:100860008042E4F53BF53C12108B50381210A9E0A1
:10087000FF12100DEFF0053CE53C70EB053B80E707
:10088000E4F53BF53C12108B501012100D74CDF0B6
:10089000053CE53C70EF053B80EB120F95AF36AEA3
:1008A00035121E61120FC2E53AF012101902080F3C
:1008B00090E6B8E0644060030209E4E5384537702B
:1008C000030209E4120FC2F090E6A0E020E1F990E3
:1008D000E68BE0753900F53A90E6B9E0B4A31EE482
:1008E000F53BF53C12108B501E12100DE0FF12105C
:1008F000A9EFF0053CE53C70EB053B80E7120F9556
:10090000AF36AE35122065E53A1210190208BB90D9
:10091000E6B8E030E70612111D0209DC90E6BEE001
:10092000D394004005E090E68BF0903FCAE044800D
:1009300090401EF01222470209E490E6B8E020E75A
:100940000F120F3B90E6A0E020E1030209E480F4DF
:1009500012111D0209DC90E6BEE07013E090E68BF8
:10096000120FEDFD90E6BAE0FB1226120209E490A8
:10097000E6BEE064117061120F3C90E6A0E020E159
:10098000F9D20F1226C0E4F53BF53C90E740E0F5C4
:100990003FE53F604FC3E53C9402E53B9400504483
:1009A000E53F30E023AF3CC007E53C25E0FFE53BF9
:1009B00033FE74422FF58274E73EF583E0FD12109A
:1009C000E8E0FBD007122612053CE53C7002053B2F
:1009D000E53FC313F53F80B990E6BEE090E68BF0AB
:0D09E0008002D322C322F0D20F1226C022C3
:092650007F017E001218B8D322AC
:092659007F017E001218B8D322A3
:0218FE00D322F3
:101F760090E680E030E71800000090E6247402F056
:101F8600000000E490E625F0000000D20480160070
:101F96000000E490E624F000000090E6257440F08E
:0F1FA600000000C20490E6BAE0903FD1F0D322D1
:0A262800903FD1120FBD04F0D32241
:0A26320090E6BAE0903FC8F0D32212
:0A263C00903FC8120FBD04F0D32236
:0226B900D3222A
:0226BB00D32228
:0226BD00D32226
:1022FF00C0E0C083C082C085C084C086758600D20E
:10230F000A1210B67401F0D086D084D085D082D056
:04231F0083D0E03255
:10238C00C0E0C083C082C085C084C086120F8E900E
:10239C00E65D7404F0D086D084D085D082D083D012
:0223AC00E0321D
:1023AE00C0E0C083C082C085C084C086120F8E90EC
:1023BE00E65D7402F0D086D084D085D082D083D0F2
:0223CE00E032FB
:1020CE00C0E0C083C082C085C084C086758600858E
:1020DE00100C85110D1210F385080E85090F1210C4
:1020EE00FE1210B67410F0D086D084D085D082D077
:0420FE0083D0E03279
:10232300C0E0C083C082C085C084C086758600D2E9
:102333000C1210B67408F0D086D084D085D082D029
:0423430083D0E03231
:101FF400C0E0C083C082C085C084C086758600905E
:10200400E680E030E71285080C85090D1210F3858F
:10201400100E85110F1210FE1210B67420F0D08627
:0B202400D084D085D082D083D0E03281
:0126C10032E6
:0126C20032E5
:0126C30032E4
:0126C40032E3
:0126C50032E2
:0126C60032E1
:1023D000C0E0C083C082C085C084C086120F8E90CA
:1023E000E65F7410F0D086D084D085D082D083D0C0
:0223F000E032D9
:0126C70032E0
:1023F200C0E0C083C082C085C084C086120F8E90A8
:10240200E65F7440F0D086D084D085D082D083D06D
:02241200E032B6
:0126C80032DF
:10241400C0E0C083C082C085C084C086120F8E9085
:10242400E65B7401F0D086D084D085D082D083D08E
:02243400E03294
:0126C90032DE
:0126CA0032DD
:10243600C0E0C083C082C085C084C086120F8E9063
:10244600E65B7410F0D086D084D085D082D083D05D
:02245600E03272
:0126CB0032DC
:10245800C0E0C083C082C085C084C086120F8E9041
:10246800E65B7440F0D086D084D085D082D083D00B
:02247800E03250
:0126CC0032DB
:0126CD0032DA
:0126CE0032D9
:0126CF0032D8
:0126D00032D7
:0126D10032D6
:0126D20032D5
:0126D30032D4
:0126D40032D3
:0126D50032D2
:10247A00C0E0C083C082C085C084C086120F8E901F
:10248A00E6517402F0D086D084D085D082D083D031
:02249A00E0322E
:0126D60032D1
:10249C00C0E0C083C082C085C084C086120F8E90FD
:1024AC00E6557402F0D086D084D085D082D083D00B
:0224BC00E0320C
:0126D70032D0
:1024BE00C0E0C083C082C085C084C086120F8E90DB
:1024CE00E6517401F0D086D084D085D082D083D0EE
:0224DE00E032EA
:0126D80032CF
:1024E000C0E0C083C082C085C084C086120F8E90B9
:1024F000E6557401F0D086D084D085D082D083D0C8
:02250000E032C7
:0126D90032CE
:0126DA0032CD
:0126DB0032CC
:101EB100AB07AA06AC05E4FD903FD2E0600B7E00C3
:101EC1000DEE24EA1210D5EAF0AE050D74EA2E12D9
:101ED10010D5EBF0AF050D74EA2F1210D5ECF09090
:101EE1003FC9E0FF7A3F7BEA122559903FC9E0FFE5
:031EF10002202F9D
:102065008E408F418D428A438B44E4F545E545C357
:10207500954250200541E541AE407002054014FFF0
:10208500E5442545F582E43543F583E0FD121EB1AF
:05209500054580D92281
:101E61008E4D8F4E8D4F8A508B51E4FDF552903F30
:101E7100D2E06012E54DFF7E000DEE24EAF582E42A
:101E8100343FF583EFF0AE050D74EA2EF582E434AC
:101E91003FF583E54EF0903FC9E0FF7A3F7BEA12C0
:101EA1002559903FC9E0FFAB51AA50AD4F02253DE6
:10252000A210920790401F300707E4F0121AF580BE
:0D253000067402F0121A5D12236A0225B231
:0A264600A20F92101225200217E6E1
:101E0D0090E67AE04401F0C2E990E678E04480F093
:101E1D0090E679741CF090E678E030E0F9EF441824
:101E2D0090E679F090E678E030E0F9EC90E679F024
:101E3D0090E678E030E0F9ED90E679F090E678E024
:101E4D004440F090E678E030E0F990E678E020E666
:041E5D00F9D2E922AB
:09266200055BE55B7002055A22DC
:02146F00C10DAD
:10226D00903FCCEFF0F5CB8FCDAF05903FCDEFF09C
:10227D00F5CA8FCCE4F5C8758E19D2BDD2AFD2ADEB
:05228D00D2CAF51C227D
:0D260500903FCCE0FF903FCDE0FD02226D44
:09266B00A20E9211D20EA211225E
:09267400A20E9212C20EA2122263
:0317FD00AF1C22FC
:0326B600A20E224F
:1025E700AD07AC06C3E49DFBE49CFFEBFD02226D47
:05269C00C2CAC2AD221C
:03002B00022502A9
:10250200C0E0300E0E300D04051C8007D20D1226DD
:0E25120062C20D300203122662C2CFD0E03248
:03004300021800A0
:0300530002180090
:101800000222FF000223AE0002238C0002232300E9
:101810000220CE00021FF4000226C1000226C200F0
:101820000226C3000226C4000226C5000226C60006
:101830000223D0000226C7000223F2000226C800BD
:10184000022414000226C2000226C9000226CA0091
:10185000022436000226CB00022458000226CC00C7
:101860000226CD000226C2000226C2000226C200C5
:101870000226CE000226CF000226D0000226D1008A
:101880000226D2000226D3000226D4000226D5006A
:1018900002247A000226D60002249C000226D700E9
:1018A0000224BE000226D8000224E0000226D9004D
:0818B0000226DA000226DB002B
:1021C80090E682E030E004E020E60B90E682E03022
:1021D800E119E030E71590E680E04401F07F147ED5
:0C21E800001218B890E680E054FEF022CF
:1022920090E682E044C0F090E681F04387010000BE
:0422A2000000002216
:10219900300F0990E680E0440AF0800790E680E07D
:1021A9004408F07FDC7E051218B890E65D74FFF0F4
:0F21B90090E65FF05391EF90E680E054F7F0224C
:1018B8008E358F3690E600E054187012E536240114
:1018C800FFE43535C313F535EF13F536801590E68B
:1018D80000E05418FFBF100BE53625E0F536E53576
:1018E80033F535E5361536AE35700215354E6005DB
:0618F8001222A680EE2280
:08268E00E4F51BD2E9D2AF22F2
:10202F0090E678E020E6F9C2E990E678E04480F0A7
:10203F00EF25E090E679F090E678E030E0F990E671
:10204F0078E04440F090E678E020E6F990E678E01A
:06205F0030E1D6D2E922B7
:10213600A90790E678E020E6F9E51B702390E6789B
:10214600E04480F0E925E090E679F08D16AF03A92A
:10215600077517018A188919E4F51A751B01D32228
:02216600C32292
:10210200A90790E678E020E6F9E51B702590E678CD
:10211200E04480F0E925E0440190E679F08D16AFC5
:1021220003A9077517018A188919E4F51A751B03A3
:04213200D322C322CF
:03004B000214722A
:10147200C0E0C083C082C085C084C086758600C0BB
:10148200D075D000C000C001C002C003C006C007B2
:1014920090E678E030E206751B0602155C90E6786D
:1014A200E020E10CE51B64026006751B0702155C77
:1014B200E51B24FE605F14603624FE700302154DA6
:1014C20024FC70030215592408600302155CAB1753
:1014D200AA18A919AF1A051A8F82758300121593DB
:1014E20090E679F0E51A65167070751B05806B90B1
:1014F200E679E0AB17AA18A919AE1A8E8275830095
:101502001215C0751B02E5166401704E90E678E074
:101512004420F08045E51624FEB51A0790E678E0EF
:101522004420F0E51614B51A0A90E678E04440F03B
:10153200751B0090E679E0AB17AA18A919AE1A8EAE
:10154200827583001215C0051A800F90E678E04478
:1015520040F0751B008003751B005391DFD007D04C
:1015620006D003D002D001D000D0D0D086D084D013
:0815720085D082D083D0E03265
:0221F400A90739
:1021F600AE14AF158F828E83A3E064037017AD0112
:1022060019ED7001228F828E83E07C002FFDEC3E5B
:09221600FEAF0580DF7E007F00B1
:01221F00229C
:10253D00122102E51B24FA600E146006240770F3C5
:0C254D00D322E4F51BD322E4F51BD322BB
:10255900122136E51B24FA600E146006240770F375
:0C256900D322E4F51BD322E4F51BD3229F
:1022A6007400F58690FDA57C05A3E582458370F94B
:0122B6002205
:0126DC0022DB
:09267D00151DA81DA607051D226C
:0526A1007F0D02267D03
:10259E00AE07EEC3940AEE5004243080022437FFB7
:0425AE0012267D2252
:1025D600AD07EDC4540FFF12259EED540FFF0225E3
:0125E6009E56
:0E25F700AB07AA06AF021225D6AF030225D607
:101FB500151D151D151DA81DA60308A60208A601B9
:101FC500A81D860308E6FA08E6F912157A6019A82D
:101FD5001D8603080806E618860270010614F91224
:0F1FE500157AFF12267D80D8051D051D051D22CA
:03000000021CB12E
:0C1CB100787FE4F6D8FD75815C021CF819
:10157A00BB010689828A83E0225002E722BBFE026F
:09158A00E32289828A83E49322A2
:10159300BB010CE58229F582E5833AF583E022500D
:1015A30006E92582F8E622BBFE06E92582F8E22257
:0D15B300E58229F582E5833AF583E4932271
:1015C000F8BB010DE58229F582E5833AF583E8F061
:1015D000225006E92582C8F622BBFE05E92582C80D
:0215E000F222F5
:1015E200BC000BBE0029EF8DF084FFADF022E4CCED
:1015F200F875F008EF2FFFEE33FEEC33FCEE9DECB6
:10160200984005FCEE9DFE0FD5F0E9E4CEFD22EDFB
:10161200F8F5F0EE8420D21CFEADF075F008EF2F45
:10162200FFED33FD4007985006D5F0F222C398FD36
:051632000FD5F0EA22D3
:10163700D083D082F8E4937012740193700DA3A342
:1016470093F8740193F5828883E473740293686056
:06165700EFA3A3A380DF56
:10257500E4FFFE12157A600C0FEF70010E09E97089
:05258500F20A80EF22C4
:101CBD00021C20E493A3F8E493A34003F68001F201
:101CCD0008DFF48029E493A3F85407240CC8C33328
:101CDD00C4540F4420C8834004F456800146F6DFF7
:101CED00E4800B01020408102040809012D1E47EA4
:101CFD00019360BCA3FF543F30E509541FFEE493EC
:101D0D00A360010ECF54C025E060A840B8E493A3B2
:101D1D00FAE493A3F8E493A3C8C582C8CAC583CADD
:101D2D00F0A3C8C582C8CAC583CADFE9DEE780BE95
:01147100007A
:00000001FF
